{
    "_format": "hh-sol-artifact-1",
    "contractName": "UserManager",
    "sourceName": "contracts/UserManager.sol",
    "abi": [
        {
            "anonymous": false,
            "inputs": [
                {
                    "indexed": false,
                    "internalType": "uint256",
                    "name": "id",
                    "type": "uint256"
                },
                {
                    "indexed": false,
                    "internalType": "string",
                    "name": "name",
                    "type": "string"
                },
                {
                    "indexed": false,
                    "internalType": "uint256",
                    "name": "balance",
                    "type": "uint256"
                }
            ],
            "name": "UserCreated",
            "type": "event"
        },
        {
            "anonymous": false,
            "inputs": [
                {
                    "indexed": false,
                    "internalType": "uint256",
                    "name": "id",
                    "type": "uint256"
                }
            ],
            "name": "UserDeleted",
            "type": "event"
        },
        {
            "anonymous": false,
            "inputs": [
                {
                    "indexed": false,
                    "internalType": "uint256",
                    "name": "id",
                    "type": "uint256"
                },
                {
                    "indexed": false,
                    "internalType": "string",
                    "name": "name",
                    "type": "string"
                },
                {
                    "indexed": false,
                    "internalType": "uint256",
                    "name": "balance",
                    "type": "uint256"
                },
                {
                    "indexed": false,
                    "internalType": "bool",
                    "name": "active",
                    "type": "bool"
                }
            ],
            "name": "UserUpdated",
            "type": "event"
        },
        {
            "inputs": [
                {
                    "internalType": "string",
                    "name": "_name",
                    "type": "string"
                },
                {
                    "internalType": "uint256",
                    "name": "_balance",
                    "type": "uint256"
                }
            ],
            "name": "createUser",
            "outputs": [],
            "stateMutability": "nonpayable",
            "type": "function"
        },
        {
            "inputs": [
                {
                    "internalType": "uint256",
                    "name": "_id",
                    "type": "uint256"
                }
            ],
            "name": "deleteUser",
            "outputs": [],
            "stateMutability": "nonpayable",
            "type": "function"
        },
        {
            "inputs": [
                {
                    "internalType": "uint256",
                    "name": "_id",
                    "type": "uint256"
                }
            ],
            "name": "getUser",
            "outputs": [
                {
                    "components": [
                        {
                            "internalType": "string",
                            "name": "name",
                            "type": "string"
                        },
                        {
                            "internalType": "uint256",
                            "name": "balance",
                            "type": "uint256"
                        },
                        {
                            "internalType": "bool",
                            "name": "active",
                            "type": "bool"
                        }
                    ],
                    "internalType": "struct UserManager.User",
                    "name": "",
                    "type": "tuple"
                }
            ],
            "stateMutability": "view",
            "type": "function"
        },
        {
            "inputs": [
                {
                    "internalType": "uint256",
                    "name": "_id",
                    "type": "uint256"
                },
                {
                    "internalType": "string",
                    "name": "_name",
                    "type": "string"
                },
                {
                    "internalType": "uint256",
                    "name": "_balance",
                    "type": "uint256"
                },
                {
                    "internalType": "bool",
                    "name": "_active",
                    "type": "bool"
                }
            ],
            "name": "updateUser",
            "outputs": [],
            "stateMutability": "nonpayable",
            "type": "function"
        },
        {
            "inputs": [],
            "name": "userCount",
            "outputs": [
                {
                    "internalType": "uint256",
                    "name": "",
                    "type": "uint256"
                }
            ],
            "stateMutability": "view",
            "type": "function"
        },
        {
            "inputs": [
                {
                    "internalType": "uint256",
                    "name": "",
                    "type": "uint256"
                }
            ],
            "name": "users",
            "outputs": [
                {
                    "internalType": "string",
                    "name": "name",
                    "type": "string"
                },
                {
                    "internalType": "uint256",
                    "name": "balance",
                    "type": "uint256"
                },
                {
                    "internalType": "bool",
                    "name": "active",
                    "type": "bool"
                }
            ],
            "stateMutability": "view",
            "type": "function"
        }
    ],
    "bytecode": "0x6080604052348015600f57600080fd5b50610ee28061001f6000396000f3fe608060405234801561001057600080fd5b50600436106100625760003560e01c806307973ccf14610067578063121ef24314610085578063365b98b2146100a157806338f14845146100d3578063b0467deb146100ef578063df8feac41461011f575b600080fd5b61006f61013b565b60405161007c91906105d6565b60405180910390f35b61009f600480360381019061009a9190610777565b610141565b005b6100bb60048036038101906100b691906107d3565b61020f565b6040516100ca9392919061089a565b60405180910390f35b6100ed60048036038101906100e891906107d3565b6102ce565b005b610109600480360381019061010491906107d3565b61037a565b6040516101169190610990565b60405180910390f35b610139600480360381019061013491906109de565b6104a1565b005b60015481565b604051806060016040528083815260200182815260200160011515815250600080600154815260200190815260200160002060008201518160000190816101889190610c6d565b506020820151816001015560408201518160020160006101000a81548160ff0219169083151502179055509050507f2d4ab3df663b5d79dd05758cbaa4114c7f6ed1ba4ca7bc3c89f0cac0ea1005e660015483836040516101eb93929190610d3f565b60405180910390a16001600081548092919061020690610dac565b91905055505050565b600060205280600052604060002060009150905080600001805461023290610a90565b80601f016020809104026020016040519081016040528092919081815260200182805461025e90610a90565b80156102ab5780601f10610280576101008083540402835291602001916102ab565b820191906000526020600020905b81548152906001019060200180831161028e57829003601f168201915b5050505050908060010154908060020160009054906101000a900460ff16905083565b6001548110610312576040517f08c379a000000000000000000000000000000000000000000000000000000000815260040161030990610e40565b60405180910390fd5b600080600083815260200190815260200160002060020160006101000a81548160ff0219169083151502179055507f42a77abd0397855f875460bb511f41935bfa5f396b556d95717d8c2e08334aae8160405161036f91906105d6565b60405180910390a150565b61038261059a565b60015482106103c6576040517f08c379a00000000000000000000000000000000000000000000000000000000081526004016103bd90610e40565b60405180910390fd5b6000808381526020019081526020016000206040518060600160405290816000820180546103f390610a90565b80601f016020809104026020016040519081016040528092919081815260200182805461041f90610a90565b801561046c5780601f106104415761010080835404028352916020019161046c565b820191906000526020600020905b81548152906001019060200180831161044f57829003601f168201915b50505050508152602001600182015481526020016002820160009054906101000a900460ff1615151515815250509050919050565b60015484106104e5576040517f08c379a00000000000000000000000000000000000000000000000000000000081526004016104dc90610e40565b60405180910390fd5b604051806060016040528084815260200183815260200182151581525060008086815260200190815260200160002060008201518160000190816105299190610c6d565b506020820151816001015560408201518160020160006101000a81548160ff0219169083151502179055509050507f58c62fd4b4224aa542c0b9d995a5290091f5d2e7fc59dfed615e1193f16da5008484848460405161058c9493929190610e60565b60405180910390a150505050565b604051806060016040528060608152602001600081526020016000151581525090565b6000819050919050565b6105d0816105bd565b82525050565b60006020820190506105eb60008301846105c7565b92915050565b6000604051905090565b600080fd5b600080fd5b600080fd5b600080fd5b6000601f19601f8301169050919050565b7f4e487b7100000000000000000000000000000000000000000000000000000000600052604160045260246000fd5b6106588261060f565b810181811067ffffffffffffffff8211171561067757610676610620565b5b80604052505050565b600061068a6105f1565b9050610696828261064f565b919050565b600067ffffffffffffffff8211156106b6576106b5610620565b5b6106bf8261060f565b9050602081019050919050565b82818337600083830152505050565b60006106ee6106e98461069b565b610680565b90508281526020810184848401111561070a5761070961060a565b5b6107158482856106cc565b509392505050565b600082601f83011261073257610731610605565b5b81356107428482602086016106db565b91505092915050565b610754816105bd565b811461075f57600080fd5b50565b6000813590506107718161074b565b92915050565b6000806040838503121561078e5761078d6105fb565b5b600083013567ffffffffffffffff8111156107ac576107ab610600565b5b6107b88582860161071d565b92505060206107c985828601610762565b9150509250929050565b6000602082840312156107e9576107e86105fb565b5b60006107f784828501610762565b91505092915050565b600081519050919050565b600082825260208201905092915050565b60005b8381101561083a57808201518184015260208101905061081f565b60008484015250505050565b600061085182610800565b61085b818561080b565b935061086b81856020860161081c565b6108748161060f565b840191505092915050565b60008115159050919050565b6108948161087f565b82525050565b600060608201905081810360008301526108b48186610846565b90506108c360208301856105c7565b6108d0604083018461088b565b949350505050565b600082825260208201905092915050565b60006108f482610800565b6108fe81856108d8565b935061090e81856020860161081c565b6109178161060f565b840191505092915050565b61092b816105bd565b82525050565b61093a8161087f565b82525050565b6000606083016000830151848203600086015261095d82826108e9565b91505060208301516109726020860182610922565b5060408301516109856040860182610931565b508091505092915050565b600060208201905081810360008301526109aa8184610940565b905092915050565b6109bb8161087f565b81146109c657600080fd5b50565b6000813590506109d8816109b2565b92915050565b600080600080608085870312156109f8576109f76105fb565b5b6000610a0687828801610762565b945050602085013567ffffffffffffffff811115610a2757610a26610600565b5b610a338782880161071d565b9350506040610a4487828801610762565b9250506060610a55878288016109c9565b91505092959194509250565b7f4e487b7100000000000000000000000000000000000000000000000000000000600052602260045260246000fd5b60006002820490506001821680610aa857607f821691505b602082108103610abb57610aba610a61565b5b50919050565b60008190508160005260206000209050919050565b60006020601f8301049050919050565b600082821b905092915050565b600060088302610b237fffffffffffffffffffffffffffffffffffffffffffffffffffffffffffffffff82610ae6565b610b2d8683610ae6565b95508019841693508086168417925050509392505050565b6000819050919050565b6000610b6a610b65610b60846105bd565b610b45565b6105bd565b9050919050565b6000819050919050565b610b8483610b4f565b610b98610b9082610b71565b848454610af3565b825550505050565b600090565b610bad610ba0565b610bb8818484610b7b565b505050565b5b81811015610bdc57610bd1600082610ba5565b600181019050610bbe565b5050565b601f821115610c2157610bf281610ac1565b610bfb84610ad6565b81016020851015610c0a578190505b610c1e610c1685610ad6565b830182610bbd565b50505b505050565b600082821c905092915050565b6000610c4460001984600802610c26565b1980831691505092915050565b6000610c5d8383610c33565b9150826002028217905092915050565b610c7682610800565b67ffffffffffffffff811115610c8f57610c8e610620565b5b610c998254610a90565b610ca4828285610be0565b600060209050601f831160018114610cd75760008415610cc5578287015190505b610ccf8582610c51565b865550610d37565b601f198416610ce586610ac1565b60005b82811015610d0d57848901518255600182019150602085019450602081019050610ce8565b86831015610d2a5784890151610d26601f891682610c33565b8355505b6001600288020188555050505b505050505050565b6000606082019050610d5460008301866105c7565b8181036020830152610d668185610846565b9050610d7560408301846105c7565b949350505050565b7f4e487b7100000000000000000000000000000000000000000000000000000000600052601160045260246000fd5b6000610db7826105bd565b91507fffffffffffffffffffffffffffffffffffffffffffffffffffffffffffffffff8203610de957610de8610d7d565b5b600182019050919050565b7f55736572206e6f7420666f756e64000000000000000000000000000000000000600082015250565b6000610e2a600e8361080b565b9150610e3582610df4565b602082019050919050565b60006020820190508181036000830152610e5981610e1d565b9050919050565b6000608082019050610e7560008301876105c7565b8181036020830152610e878186610846565b9050610e9660408301856105c7565b610ea3606083018461088b565b9594505050505056fea2646970667358221220438d4df8ba53fd087f32337bbf6db810dde2287615cc4467e1cc0a44562992c464736f6c634300081c0033",
    "linkReferences": {},
    "deployedLinkReferences": {}
}